:100000002AC04EC07DC37CC34BC04AC049C048C053
:1000100047C046C045C02AC343C042C041C09FC478
:10002000E7C300003A00370000003B003800010140
:100030000101010101010202020201020408102073
:1000400040800402010800000000000403020100D7
:1000500000007A06CE0611241FBECFE5D2E0DEBF37
:10006000CDBF21E0A2E7B0E001C01D92A53FB207DD
:10007000E1F710E0A0E6B0E0E4E9FEE002C00590A0
:100080000D92A237B107D9F710E0CAE2D0E003C061
:100090002197FE01EDD6C932D107D1F7A7D4EEC61C
:1000A000AFCF8091F401882329F09091F301891B4F
:1000B000990B08959091F2018091F101891B8F7045
:1000C00090E00895EEDF892B11F18091F4018823EF
:1000D00061F02091F301E22FF0E0EE58FF4F8081B4
:1000E00090E02F5F2093F30108959091F2018091A9
:1000F000F1019817E1F3E091F201EF5FEF70E09307
:10010000F201F0E0EE58FF4F808190E008958FEF0C
:100110009FEF08953FB7F8948091ED019091EE0123
:10012000A091EF01B091F00122B708B600FE05C022
:100130002F3F19F00196A11DB11D3FBFBA2FA92F66
:10014000982F8827BC01CD01620F711D811D911D63
:1001500043E0660F771F881F991F4A95D1F70895CE
:10016000CF92DF92EF92FF92CF93DF93D3DFEB0139
:100170008BE0C82ED12CE12CF12CCCDF6C1B7D0B3D
:10018000683E7340A0F0C114D104E104F10439F4D5
:10019000DF91CF91FF90EF90DF90CF90089581E0B5
:1001A000C81AD108E108F108C851DC4FE6CFC114E4
:1001B000D104E104F10409F7EBCFCF92DF92EF9283
:1001C000FF920F931F93CF93DF936C01EB017B01A1
:1001D000E40EF51E10E000E0CE15DF0561F0699138
:1001E000D601ED91FC910190F081E02DC6010995B9
:1001F000080F191FF1CFC801DF91CF911F910F9107
:10020000FF90EF90DF90CF9008952091E70030911C
:10021000E8002817390781F49091E5008091E60005
:10022000981751F0E091E500F0E0EB55FF4F808129
:10023000082E000C990B08958FEF9FEF08952091E1
:10024000E7003091E8002817390739F48FB7F894A0
:100250001092E6001092E5008FBF0895EF92FF9292
:100260000F931F93CF93DF93DC015C96ED90FC908E
:100270005D97E114F10479F481E090E013969C938A
:100280008E93129790E080E0DF91CF911F910F91B4
:10029000FF90EF9008955196ED91FC9152975096F2
:1002A0008C915097982F90950FB75E962C915E97F2
:1002B000122F127021FD6095F8942081112319F1FD
:1002C000282B2083E7012197F1F728E0462F50E003
:1002D000308160FF1AC0382B3083E7012197F1F796
:1002E000BA0175956795215089F7112381F08081B6
:1002F000892380830FBF5C968D919C910197F1F7C4
:1003000081E090E0C1CF2923DCCF3923E5CF908174
:10031000892BEFCF2091E7003091E80028173907AB
:1003200069F48091E6002091E50090E0805C9F4FA9
:10033000821B910960E470E074D5089590E080E03C
:1003400008952091E7003091E80028173907B9F4A3
:100350009091E5008091E600981789F0E091E50022
:10036000F0E0EB55FF4F80812091E50030E02F5FFA
:100370003F4F2F7333272093E50090E008958FEFD0
:100380009FEF08951092F2011092F10110929F00D8
:100390001092A0008093A3001092A2001092A100DE
:1003A00010929E0010929D00DC9ADE9AD49AD69804
:1003B00088EA8DB980EF8EB908950F931F939091BD
:1003C000FF008091C801A2E9B0E030E020E098137E
:1003D0002FC01092920010929300109294001092ED
:1003E000950010929600109297001092980010922B
:1003F000990060919C003091F4019091F30120E00C
:1004000080916000281708F06EC0E22FF0E0EE56F1
:10041000FF4F5081662309F44DC0303238F4E92F84
:10042000F0E0EE58FF4F50839F5F392F2F5FE8CFEA
:100430008091FF0090E06AE070E0E2D480509F4F2E
:10044000FC01E20FF31F80818D932F5F3F4F263019
:10045000310571F78FB7F8940091E9011091EA0125
:100460002091EB013091EC018FBF8091FF0090E073
:100470006AE070E0C5D480509F4FFC01868197816F
:10048000A085B185081B190B2A0B3B0B30939800F4
:100490002093990010939A0000939B008091FF0095
:1004A00091E0980F9093FF00843109F0A2CF109251
:1004B000FF009FCF4091A00080919F004F5F841B61
:1004C0008F7009F4B3CF8091A0008F5F8F7040913F
:1004D0009F008417E1F3E82FF0E0EE57FF4F5083C1
:1004E0008093A000A3CF9093F3013093F4011F9168
:1004F0000F91089590E0FC01EA5BFF4F3491FC01FD
:10050000E65CFF4F2491FC01E25DFF4FE491EE2396
:10051000B9F0332329F03130A1F480B78F7780BF51
:10052000F0E0EE0FFF1FE85DFF4FA591B4918FB78C
:10053000611117C0F894EC9120952E232C938FBF56
:100540000895323019F480B78F7DE9CF333021F42C
:100550008FB58F778FBDE4CF343011F78FB58F7D96
:10056000F9CFF894EC912E2BE9CFCF93DF9390E065
:10057000FC01E65CFF4F2491825D9F4FFC0184915A
:100580008823C9F090E0880F991FFC01EE5DFF4FB2
:10059000A591B491FC01E85DFF4FC591D491611123
:1005A0000DC09FB7F8948C91209582238C938881FD
:1005B000282328839FBFDF91CF910895623051F4A3
:1005C0009FB7F8943C91822F809583238C93E88188
:1005D0002E2BEFCF8FB7F894EC912E2B2C938FBF4F
:1005E000EACFD498D6981DB880EF8EB9D498D69813
:1005F000DE98DC98C89915C01092F3011092F401AE
:1006000010929C0084E1BEDE8AE193E090939E000C
:1006100080939D008DED91E09093A2008093A100C6
:100620000895809161001092F3011092F4011092EC
:100630009C00E9CF36DD892BC1F044DD873CD1F742
:1006400030DD892BB9F33EDD80936100809161003C
:10065000883080F380916100883760F76091610095
:1006600081E090E0BFD3BDDFE5CF08951F920F92E8
:100670000FB60F9211242F933F938F939F93AF93B5
:10068000BF938091E9019091EA01A091EB01B091B3
:10069000EC013091E80126E0230F2D3768F129E8BD
:1006A000230F0396A11DB11D2093E8018093E9015A
:1006B0009093EA01A093EB01B093EC018091ED01DE
:1006C0009091EE01A091EF01B091F0010196A11D72
:1006D000B11D8093ED019093EE01A093EF01B093D3
:1006E000F001BF91AF919F918F913F912F910F900A
:1006F0000FBE0F901F9018950296A11DB11DD4CF6B
:100700001F920F920FB60F9211242F933F934F9386
:100710005F936F937F938F939F93AF93BF93EF9369
:10072000FF93E091E700F091E800309749F0A6854B
:10073000B7858585968D91FF14C09C918923A1F47E
:10074000FF91EF91BF91AF919F918F917F916F91A9
:100750005F914F913F912F910F900FBE0F901F907F
:1007600018959C91892361F7A389B4899C91858907
:10077000809589238C93868997890197F1F7608DFD
:10078000718DA685B785558538E020E0CB010197AE
:10079000F1F7822F90E095958795282F4C9145236E
:1007A00009F02068315091F7868D81FD2095809168
:1007B000E60090E001968F7399273091E500381795
:1007C00099F0A091E600B0E0AB55BF4F2C93809319
:1007D000E600828D938D0197F1F7A389B4898C91FE
:1007E0009589892B8C93ACCF868D8160868FF1CFD4
:1007F0001F920F920FB60F9211242F933F934F9396
:100800005F936F937F938F939F93AF93BF93CF9398
:10081000EF93FF938091A400823009F474C0B8F480
:10082000882389F1813009F454C0FF91EF91CF9171
:10083000BF91AF919F918F917F916F915F914F91F8
:100840003F912F910F900FBE0F901F9018958430FD
:1008500009F45FC0B8F1853041F784E08093A400CB
:100860009FB18091F1018F5F8F702091F201281765
:1008700009F473C08093F101E091F101F0E0EE58CA
:10088000FF4F908319C08FB1882331F08FB18695C7
:100890009091A300891319C0789B12C0E091A10028
:1008A000F091A200309729F08091A00080939F00E2
:1008B000099581E08093A4001FB8D69A8EE721C0E5
:1008C00084E0F8CF8FB1882321F0D69888EA8DB9DB
:1008D00017C080919F009091A0009817B1F380916C
:1008E0009F008F5F8F7080939F00E0919F00F0E0EA
:1008F000EE57FF4F80818FB982E08093A400D69A93
:1009000080E78EB992CF83E08093A400D6981FB879
:10091000D5CF85E08093A400D69880E78EB9E0918A
:100920009D00F0919E00309709F47FCFC091F101B6
:100930008091F2018C1709F478CF8EB18E7AE9F3A9
:10094000759B73CF9091F2018091F101891B8F709B
:1009500090E00995C093F20168CFD698AFCF1F926F
:100960000F920FB60F9211242F933F934F935F93E3
:100970006F937F938F939F93AF93BF93CF93EF9397
:10098000FF93E0919D00F0919E00309781F0C0911F
:10099000F1018091F2018C1751F09091F201809158
:1009A000F101891B8F7090E00995C093F2011092BC
:1009B000A400D698CC9B18C0CE9BFCCF88EA8DB9FA
:1009C00080EF8EB9FF91EF91CF91BF91AF919F9141
:1009D0008F917F916F915F914F913F912F910F90E8
:1009E0000FBE0F901F90189588EFE9CF83E080BF6E
:1009F00083BF789499B7916099BF91E09FBD8EBDF8
:100A000086E886B962E080E0B0DD61E083E0ADDDDC
:100A100060E082E0AADD61E081E0A7DD1092E40100
:100A20001092E3011092E2011092E1011092E001B4
:100A30001092DF018DEC90E09093E6018093E50148
:100A40009091D5019C30C8F525E530E03093E00168
:100A50002093DF012BEC30E03093E2012093E101A1
:100A600020E930E03093E4012093E3018BB720E1EB
:100A7000983008F020E2822B8BBF22E330E09830E0
:100A800030F020E430E09B3010F030E020E0309394
:100A9000DD012093DC01492F50E0983008F0F3C0CD
:100AA00081E001C0880F9A95EAF78093DE0180917A
:100AB000E5019091E6010197F1F78091E3019091B2
:100AC000E401892B49F1E091E700F091E80081E031
:100AD000E93CF80709F1309739F0A389B4899C9172
:100AE0008589809589238C938091E7018E7F8093FF
:100AF000E7011092E6001092E50089EC91E09093F6
:100B0000E8008093E700E091DC01F091DD01808155
:100B10009091DE01892B808316B884E885BF80E838
:100B200085BF85B7877E85BF85B7806285BF81E039
:100B300090E050D180936100809161008F3F41F43B
:100B400083E1809361006091610081E090E04AD18F
:100B500048DDCEEFD0E089EC91E0DCDB892B09F4B5
:100B6000B7C089EC91E0D6DB892B09F4A7C089ECEA
:100B700091E0E7DB029709F0A1C0F2DA8FEEE82EF0
:100B800080E0F82E670189EC91E0DBDBF6018193D0
:100B90006F01E6DACC15DD05B1F750E040E030E05A
:100BA00020E0B9016170772720FD05C021153105CE
:100BB00011F04F5F5F4FF70191917F01933011F179
:100BC0002B30310524F09D30C1F09A30B1F080ED2A
:100BD000890FFA01E751FF4F672B09F060C08A3097
:100BE00038F08FEB890F863008F057C089EC890FF9
:100BF000982F9295907F9083182F2F5F3F4F2F3023
:100C0000310579F68091E9009091EA008927909169
:100C1000EB0089279091EC0089279091ED008927BE
:100C20009091EE0098139DCFA9EEB0E030E020E067
:100C30008091C8014D9190E06AE070E0E1D0805071
:100C40009F4FFC01E20FF31F40832F5F3F4F263081
:100C5000310571F78091C8019FB7F894C090E90100
:100C6000D090EA01E090EB01F090EC019FBF90E0A2
:100C70006AE070E0C5D080509F4FFC01C682D782E9
:100C8000E086F1866ECF2AE030E0241B350B81E050
:100C900001C0880F2A95EAF708CF812FA9CF8A30A3
:100CA00030F08FEB890F863038F489EC890F908112
:100CB000982B9083082FA1CF802FF9CF8091C80166
:100CC00091E0980F9093C801843111F41092C801FB
:100CD0009091C8018091FF0060E0981301C061E02D
:100CE00083E008DC85B7806285BF889585B78F7DF6
:100CF00085BF31CF1092CC011092CB0188EE93E0EA
:100D0000A0E0B0E08093CD019093CE01A093CF01FD
:100D1000B093D00186E690E09093CA018093C90118
:100D20001092E0011092DF011092E2011092E101B5
:100D30001092E4011092E3011092E6011092E50195
:100D40006091E7016E7F6D7F6093E701669561704A
:100D500081E06827CFDB61E081E007DC82E08093FF
:100D6000D9018BE390E09093DB018093DA0160E09E
:100D700082E0FBDB8091E70181FD03C061E082E05E
:100D8000B9DB82E08093D50184E08093D60189E3CA
:100D900090E09093D8018093D701089586E690E083
:100DA0009093CA018093C9018091E7009091E80077
:100DB000895C914071F4E091DC01F091DD0190815A
:100DC0008091DE018095892380831092E800109243
:100DD000E7000895E199FECF9FBB8EBBE09A99276B
:100DE0008DB30895262FE199FECF1CBA9FBB8EBB11
:100DF0002DBB0FB6F894E29AE19A0FBE01960895C2
:100E00000024552704C0080E591F880F991F00970A
:100E100029F076956795B8F37105B9F7802D952F70
:100E2000089597FB072E16F4009406D077FD08D09E
:100E30000BD007FC05D03EF4909581959F4F089507
:100E4000709561957F4F0895AA1BBB1B51E107C0A8
:100E5000AA1FBB1FA617B70710F0A61BB70B881F4A
:100E6000991F5A95A9F780959095BC01CD010895D9
:100E7000EE0FFF1F0590F491E02D099410E0CAE2F7
:100E8000D0E003C0FE01F4DF2196CB32D107D1F7C9
:040E9000F894FFCF04
:100E94000A13000000002E01DD008A01A1010501F2
:020EA4001F012C
:00000001FF
