:100000002DC051C070C36FC34EC04DC04CC04BC05B
:100010004AC049C048C01DC346C045C044C092C480
:10002000DAC300003900360000003A003700000053
:100030003B0038000101010101010101020202023D
:1000400001020408102040800402010800000000A2
:1000500000040302010000007706DF0611241FBE22
:10006000CFE5D2E0DEBFCDBF21E0A2E7B0E001C026
:100070001D92A43FB207E1F710E0A0E6B0E0E6EB86
:10008000FEE002C005900D92A237B107D9F710E04B
:10009000CDE2D0E003C02197FE01FBD6CC32D107E0
:1000A000D1F797D4FCC6ACCF8091F301882329F017
:1000B0009091F201891B990B08959091F101809123
:1000C000F001891B8F7090E00895EEDF892B11F10C
:1000D0008091F301882361F02091F201E22FF0E09A
:1000E000EE58FF4F808190E02F5F2093F20108953A
:1000F0009091F1018091F0019817E1F3E091F10105
:10010000EF5FEF70E093F101F0E0EE58FF4F808178
:1001100090E008958FEF9FEF0895CF92DF92EF92D6
:10012000FF920F931F93CF93DF936C01EB017B0141
:10013000E40EF51E10E000E0CE15DF0561F06991D8
:10014000D601ED91FC910190F081E02DC601099559
:10015000080F191FF1CFC801DF91CF911F910F91A7
:10016000FF90EF90DF90CF90089590E0FC01E45B6A
:10017000FF4F3491FC01E05CFF4F2491FC01EC5CEB
:10018000FF4FE491EE23B9F0332329F03130A1F48D
:1001900080B78F7780BFF0E0EE0FFF1FE25DFF4F6B
:1001A000A591B4918FB7611117C0F894EC91209587
:1001B0002E232C938FBF0895323019F480B78F7D92
:1001C000E9CF333021F48FB58F778FBDE4CF343052
:1001D00011F78FB58F7DF9CFF894EC912E2BE9CFE5
:1001E000CF93DF9390E0FC01E05CFF4F24918C5CA7
:1001F0009F4FFC0184918823C9F090E0880F991FDC
:10020000FC01E85DFF4FA591B491FC01E25DFF4F59
:10021000C591D49161110DC09FB7F8948C91209530
:1002200082238C938881282328839FBFDF91CF91DD
:100230000895623051F49FB7F8943C91822F8095D5
:1002400083238C93E8812E2BEFCF8FB7F894EC911A
:100250002E2B2C938FBFEACF3FB7F8948091E50007
:100260009091E600A091E700B091E80022B708B6AF
:1002700000FE05C02F3F19F00196A11DB11D3FBF23
:10028000BA2FA92F982F8827BC01CD01620F711DAD
:10029000811D911D43E0660F771F881F991F4A95A6
:1002A000D1F70895CF92DF92EF92FF92CF93DF9331
:1002B000D3DFEB018BE0C82ED12CE12CF12CCCDF6D
:1002C0006C1B7D0B683E7340A0F0C114D104E104A7
:1002D000F10439F4DF91CF91FF90EF90DF90CF9050
:1002E000089581E0C81AD108E108F108C851DC4F2F
:1002F000E6CFC114D104E104F10409F7EBCF20915A
:10030000EB003091EC002817390781F49091E90057
:100310008091EA00981751F0E091E900F0E0EC5587
:10032000FF4F8081082E000C990B08958FEF9FEFEF
:1003300008952091EB003091EC002817390739F42B
:100340008FB7F8941092EA001092E9008FBF0895D9
:10035000EF92FF920F931F93CF93DF93DC015C9694
:10036000ED90FC905D97E114F10479F481E090E068
:1003700013969C938E93129790E080E0DF91CF913B
:100380001F910F91FF90EF9008955196ED91FC9180
:10039000529750968C915097982F90950FB75E96E4
:1003A0002C915E97122F127021FD6095F894208198
:1003B000112319F1282B2083E7012197F1F728E079
:1003C000462F50E0308160FF1AC0382B3083E701A0
:1003D0002197F1F7BA0175956795215089F7112397
:1003E00081F08081892380830FBF5C968D919C91E1
:1003F0000197F1F781E090E0C1CF2923DCCF3923C9
:10040000E5CF9081892BEFCF2091EB003091EC006C
:100410002817390769F48091EA002091E90090E0FB
:10042000805C9F4F821B910960E470E00BD50895BA
:1004300090E080E008952091EB003091EC002817C7
:100440003907B9F49091E9008091EA00981789F092
:10045000E091E900F0E0EC55FF4F80812091E90048
:1004600030E02F5F3F4F2F7333272093E90090E058
:1004700008958FEF9FEF08951092F1011092F0010F
:1004800010929E0010929F008093A2001092A100F3
:100490001092A00010929D0010929C00DC9ADE9AAF
:1004A000D49AD69888EA8DB980EF8EB90895D498F9
:1004B000D6981DB880EF8EB9E0E4F0E08491E4E3D3
:1004C000F0E0E491EE23F1F0F0E0EE0FFF1FEE5DBF
:1004D000FF4FA591B491EC91E823A1F080916100C8
:1004E0001092F2011092F301C7DF8DE093E0909338
:1004F0009D0080939C0088E892E09093A1008093F7
:10050000A00008951092F2011092F30184E1ECCF63
:100510000F931F93909107018091D001A2E9B0E061
:1005200030E020E0981334C01092920010929300B3
:1005300010929400109295001092960010929700DD
:10054000109298001092990090E0809160009817A6
:1005500008F060C020919F0080919E002F5F821B59
:100560008F70A1F080919F008F5F8F7020919E000F
:100570008217E1F3E82FF0E0EE57FF4FA92FB0E02C
:10058000AE56BF4F2C91208380939F009F5FDDCF9D
:100590008091070190E06AE070E043D4885F9E4F4D
:1005A000FC01E20FF31F80818D932F5F3F4F2630B8
:1005B000310571F78FB7F894009103011091040190
:1005C00020910501309106018FBF8091070190E0D5
:1005D0006AE070E026D4885F9E4FFC018681978197
:1005E000A085B185081B190B2A0B3B0B3093980093
:1005F0002093990010939A0000939B00809107012B
:1006000091E0980F90930701843109F09DCF1092EB
:1006100007019ACF1F910F91089546DD892BC1F0F4
:1006200054DD873CD1F740DD892BB9F34EDD809353
:10063000610080916100883080F38091610088378B
:1006400060F76091610081E090E0DDD330DFE5CFBD
:1006500008951F920F920FB60F9211242F933F937C
:100660008F939F93AF93BF93809103019091040167
:10067000A0910501B09106013091E40026E0230F1E
:100680002D3768F129E8230F0396A11DB11D209392
:10069000E4008093030190930401A0930501B093BB
:1006A00006018091E5009091E600A091E700B091ED
:1006B000E8000196A11DB11D8093E5009093E6002E
:1006C000A093E700B093E800BF91AF919F918F9105
:1006D0003F912F910F900FBE0F901F90189502968B
:1006E000A11DB11DD4CF1F920F920FB60F921124EE
:1006F0002F933F934F935F936F937F938F939F932A
:10070000AF93BF93EF93FF93E091EB00F091EC0078
:10071000309749F0A685B7858585968D91FF14C0E1
:100720009C918923A1F4FF91EF91BF91AF919F918B
:100730008F917F916F915F914F913F912F910F908A
:100740000FBE0F901F9018959C91892361F7A38984
:10075000B4899C918589809589238C938689978912
:100760000197F1F7608D718DA685B785558538E0C5
:1007700020E0CB010197F1F7822F90E095958795C6
:10078000282F4C91452309F02068315091F7868D30
:1007900081FD20958091EA0090E001968F73992762
:1007A0003091E900381799F0A091EA00B0E0AC551B
:1007B000BF4F2C938093EA00828D938D0197F1F7C0
:1007C000A389B4898C919589892B8C93ACCF868D24
:1007D0008160868FF1CF1F920F920FB60F92112476
:1007E0002F933F934F935F936F937F938F939F9339
:1007F000AF93BF93CF93EF93FF938091A300823089
:1008000009F474C0B8F4882389F1813009F454C024
:10081000FF91EF91CF91BF91AF919F918F917F9178
:100820006F915F914F913F912F910F900FBE0F905D
:100830001F901895843009F45FC0B8F1853041F7F6
:1008400084E08093A3009FB18091F0018F5F8F704F
:100850002091F101281709F473C08093F001E09111
:10086000F001F0E0EE58FF4F908319C08FB188235C
:1008700031F08FB186959091A200891319C0789BB1
:1008800012C0E091A000F091A100309729F0809172
:100890009F0080939E00099581E08093A3001FB87C
:1008A000D69A8EE721C084E0F8CF8FB1882321F05B
:1008B000D69888EA8DB917C080919E0090919F00CC
:1008C0009817B1F380919E008F5F8F7080939E0088
:1008D000E0919E00F0E0EE57FF4F80818FB982E0FB
:1008E0008093A300D69A80E78EB992CF83E080935D
:1008F000A300D6981FB8D5CF85E08093A300D698E3
:1009000080E78EB9E0919C00F0919D00309709F44A
:100910007FCFC091F0018091F1018C1709F478CF5D
:100920008EB18E7AE9F3759B73CF9091F10180912E
:10093000F001891B8F7090E00995C093F10168CF99
:10094000D698AFCF1F920F920FB60F9211242F930C
:100950003F934F935F936F937F938F939F93AF9347
:10096000BF93CF93EF93FF93E0919C00F0919D0094
:10097000309781F0C091F0018091F1018C1751F016
:100980009091F1018091F001891B8F7090E00995A1
:10099000C093F1011092A300D698CC9B18C0CE9BB7
:1009A000FCCF88EA8DB980EF8EB9FF91EF91CF919E
:1009B000BF91AF919F918F917F916F915F914F9177
:1009C0003F912F910F900FBE0F901F90189588EFB9
:1009D000E9CF83E080BF83BF789499B7916099BFD6
:1009E0008FBD8EBD86B18877866886B9379A62E0FA
:1009F00080E0F6DB61E083E0F3DB60E082E0F0DBE7
:100A000061E081E0EDDB1092EC011092EB011092BD
:100A1000EA011092E9011092E8011092E7018DECD1
:100A200090E09093EE018093ED019091DD019C3078
:100A3000C8F525E530E03093E8012093E7012BEC81
:100A400030E03093EA012093E90120E930E030936F
:100A5000EC012093EB018BB720E1983008F020E205
:100A6000822B8BBF22E330E0983030F020E430E07E
:100A70009B3010F030E020E03093E5012093E4015A
:100A8000492F50E0983008F0F4C081E001C0880F91
:100A90009A95EAF78093E6018091ED019091EE013D
:100AA0000197F1F78091EB019091EC01892B49F1CD
:100AB000E091EB00F091EC0081E0E13DF80709F1F5
:100AC000309739F0A389B4899C91858980958923D1
:100AD0008C938091EF018E7F8093EF011092EA005A
:100AE0001092E90081ED91E09093EC008093EB008F
:100AF000E091E401F091E50180819091E601892B7C
:100B0000808316B884E885BF80E885BF85B7877E77
:100B100085BF85B7806285BF81E090E06CD180930E
:100B20006100809161008F3F09F0ADC083E1809347
:100B300061006091610081E090E065D1B8DCC2E0C5
:100B4000D1E081ED91E060DC892B09F4BEC081ED3C
:100B500091E05ADC892B09F4AEC081ED91E06BDCA9
:100B6000029709F0A8C09EDB83EFE82E80E0F82E04
:100B7000670181ED91E05FDCF60181936F0192DB0B
:100B8000CC15DD05B1F750E040E030E020E0B901E0
:100B90006170772720FD05C02115310511F04F5FE9
:100BA0005F4FF70191917F01933011F12B303105A7
:100BB00024F09D30C1F09A30B1F080ED890FFA0138
:100BC000E351FF4F672B09F067C08A3038F08FEB95
:100BD000890F863008F05EC089EC890F982F9295B6
:100BE000907F9083182F2F5F3F4F2F30310579F67C
:100BF0008091ED009091EE0089279091EF00892778
:100C00009091F00089279091F10089279091F2004E
:100C100089139DCFADEEB0E030E020E08091D001AF
:100C20004D9190E06AE070E0FCD0885F9E4FFC013F
:100C3000E20FF31F40832F5F3F4F2630310571F7DE
:100C40008091D0019FB7F894C0900301D090040127
:100C5000E0900501F09006019FBF90E06AE070E02F
:100C6000E0D0885F9E4FFC01C682D782E086F18685
:100C70006ECF2AE030E0241B350B81E001C0880FE5
:100C80002A95EAF707CF80916100833109F456CFA6
:100C900063E151CF812FA2CF8A3030F08FEB890FE3
:100CA000863038F489EC890F9081982B9083082F37
:100CB0009ACF802FF9CF8091D00191E0980F909337
:100CC000D001843111F41092D0019091D001809123
:100CD000070160E0981301C061E083E046DA85B760
:100CE000806285BF889585B78F7D85BF2ACF10929A
:100CF000D4011092D30188EE93E0A0E0B0E080939D
:100D0000D5019093D601A093D701B093D80186E680
:100D100090E09093D2018093D1011092E80110925B
:100D2000E7011092EA011092E9011092EC01109291
:100D3000EB011092EE011092ED016091EF016E7FD8
:100D40006D7F6093EF016695617081E068270DDA31
:100D500061E081E045DAE1E4F0E0E491E093E10173
:100D6000E5E3F0E0E491F0E0EE0FFF1FE25DFF4FFE
:100D7000859194919093E3018093E20160E082E099
:100D80002FDA8091EF0181FD03C061E082E0EDD9AF
:100D900082E08093DD01E2E4F0E0E491E093DE01A3
:100DA000E6E3F0E0E491F0E0EE0FFF1FEE5DFF4FB1
:100DB000859194919093E0018093DF01089586E6F8
:100DC00090E09093D2018093D1018091EB009091BB
:100DD000EC00815D914071F4E091E401F091E50156
:100DE00090818091E6018095892380831092EC00A8
:100DF0001092EB000895E199FECF9FBB8EBBE09A65
:100E000099278DB30895262FE199FECF1CBA9FBB79
:100E10008EBB2DBB0FB6F894E29AE19A0FBE0196F5
:100E200008950024552704C0080E591F880F991FE4
:100E3000009729F076956795B8F37105B9F7802D7D
:100E4000952F089597FB072E16F4009406D077FD92
:100E500008D00BD007FC05D03EF4909581959F4FAC
:100E60000895709561957F4F0895AA1BBB1B51E1B2
:100E700007C0AA1FBB1FA617B70710F0A61BB70B0A
:100E8000881F991F5A95A9F780959095BC01CD01AF
:100E90000895EE0FFF1F0590F491E02D099410E0E6
:100EA000CDE2D0E003C0FE01F4DF2196CE32D107BF
:060EB000D1F7F894FFCF1A
:100EB6000A1300000000A8018D0004021B027F0136
:020EC600990190
:00000001FF
